:020000040800F2
:10000000F804002001010008A912000823100008CC
:10001000251200086D0100085116000800000000BC
:10002000000000000000000000000000BF120008F7
:100030006F01000800000000AB120008C1120008A8
:100040001B0100081B0100081B0100081B01000820
:100050001B0100081B0100081B0100081B01000810
:100060001B0100081B0100081B0100081B01000800
:100070001B0100081B0100081B0100081B010008F0
:100080001B0100081B0100081B0100081B010008E0
:100090001B0100081B0100081B0100081B010008D0
:1000A0001B0100081B0100081B0100081B010008C0
:1000B0001B0100081B0100081B0100081B010008B0
:1000C0001B0100081B0100081B0100081B010008A0
:1000D0001B010008451600081B0100081B01000851
:1000E0001B0100081B0100081B010008DFF80CD0F1
:1000F00000F02AF80048004791160008F804002094
:100100000648804706480047FEE7FEE7FEE7FEE7B1
:10011000FEE7FEE7FEE7FEE7FEE7FEE7071300085F
:10012000ED000008D2B201E000F8012B491EFBD21D
:1001300070470022F6E710B513460A4604461946F2
:10014000FFF7F0FF204610BD064C074D06E0E068C3
:1001500040F0010394E8070098471034AC42F6D30E
:10016000FFF7C8FF1C1700083C170008FEE77047A0
:100170007047000010B590F821100024022903D028
:100180000421816301243DE001680A6822F00E0227
:100190000A6001680A6822F001020A601A4A0168CE
:1001A000914201D1012121E0174A1432914201D13B
:1001B00010211BE0144A2832914201D1891515E023
:1001C000114A3C32914201D189140FE00E4A50325B
:1001D000914202D14FF4803108E00B4A64329142DF
:1001E00002D14FF4801101E04FF08071064A083AC5
:1001F0005160012180F82110002180F82010416B0E
:1002000001B18847204610BD080002402DE9F84F93
:10021000DFF8B891002409F1040A0AF1040B23461F
:100220000F270BF1040EC9E00125A5402A40AA4280
:100230007DD1674ED1F804C0ACEB0608B44532D08E
:1002400014DCBCF1030F3AD009DCBCF1000F2AD05A
:10025000BCF1010F1CD0BCF1020F31D11DE0BCF18B
:10026000110F17D0BCF1120F2AD119E0B8F5881F71
:1002700019D006DCB8F5803F15D0B8F5801F1FD126
:1002800011E0B8F5001F0ED0B8F5041F18D10AE030
:10029000CB6815E0CB681B1D12E0CB6808330FE07C
:1002A000CB680C330CE08B682BB1012B4FF00803AB
:1002B00003D0456104E0042302E0056100E000236F
:1002C000FF2A01D8064601E000F104064FEA840542
:1002D00001D9A5F12005D6F8008007FA05FC28EA27
:1002E0000C0803FA05F548EA0508C6F800804D68D1
:1002F000ED0062D5374DAE6946F00106AE61AD69DD
:1003000024F0030605F001050095334D06EB050CBE
:10031000DCF80850A607360F07FA06F825EA0805A4
:10032000DFF8B880404503D14FF0000817E044E003
:10033000DFF8AC80404502D14FF001080FE0DFF854
:10034000A480404502D14FF0020808E0DFF8988011
:10035000404502D14FF0030801E04FF0040808FACD
:1003600006F848EA0508CCF808804D68D9F800601E
:10037000ED034D4601D5164300E096432E604D68CF
:10038000DAF80060AD03554601D5164300E0964308
:100390002E604D68DBF80060ED025D4601D5164326
:1003A00000E096432E604D68DEF80060AD027546B1
:1003B00001D5164300E096432E60641C0D682A4662
:1003C000E5407FF431AFBDE8F88F00000004014044
:1003D0000000111000100240000001400008014020
:1003E000000C0140001001400014014001488068E9
:1003F000704700000800002002488168027811441C
:100400008160704708000020074810B5016841F07E
:1004100010010160032000F075F8002000F006F8DC
:1004200000F024F8002010BD0020024070B50D4DF2
:1004300004464FF47A712878B1FBF0F00A49096854
:10044000B1FBF0F000F0ECFA48B9102C07D2002212
:100450002146501E00F036F800206C6070BD01206F
:1004600070BD000008000020140000200C4808B5F2
:10047000816941F001018161816901F0010100910F
:10048000C16941F08051C161C06900F080500090A5
:100490000448416821F0E06141F00071416008BD0D
:1004A0000010024000000140002809DB00F01F029C
:1004B000012191404009800000F1E020C0F80011C6
:1004C00070470000F0B40E4B1B680C46C3F30223C8
:1004D000C3F10705042D00D90425191D072901D2F0
:1004E000002300E0DB1E012606FA05F1491E21402B
:1004F00099409E40761E16403143F0BC01F0A9B8E9
:100500000CED00E0064900F0070208684FF6FF0313
:10051000184040EA0220034A104308607047000078
:100520000CED00E00000FA052DE9F0470F4605004C
:1005300061D0434E306800F00700B84209D23068FD
:1005400020F0070038433060306800F00700B84200
:1005500051D128683B4C810712D5400703D560680C
:1005600040F4E06060602878000703D5606840F4DC
:10057000605060606068A96820F0F0000843606027
:100580002878C00728D06868012810D02168022880
:1005900010D0890700292EDA616821F00301014398
:1005A0006160FFF723FF804641F288390DE0216842
:1005B0008903EFE78901EDE7FFF718FFA0EB0801DA
:1005C000494502D90320BDE8F0876068696800F0FA
:1005D0000C00B0EB810FEFD1306800F00700B8429B
:1005E0000BD9306820F0070038433060306800F0E5
:1005F0000700B84201D00120E5E72878400705D57B
:100600006068E96820F4E0600843606028780007CB
:1006100006D56068296920F4605040EAC100606036
:1006200000F038F86168084AC1F30311515CC84012
:100630000649086006480068FFF7F8FE0020C2E798
:10064000002002400010024004170008140000209F
:100650000C0000200448054900684968044AC1F3B9
:100660000221515CC8407047140000200010024075
:10067000141700080448054900684968044AC1F392
:10068000C221515CC8407047140000200010024095
:100690001417000812A185B00FC98DE80F0014A02F
:1006A000144A006804905168134801F00C03042BAD
:1006B00010D0082B0ED1C1F38343C9031DF80300EA
:1006C0000AD5516804AAC1F34041515C0A4A50431B
:1006D000B0FBF1F005B0704708494843FAE7000065
:1006E00002030405060708090A0B0C0D0E0F101073
:1006F000010200000010024000127A0000093D00D3
:100700002DE9F84F040070D02078C04DC00749D0C3
:100710006868C0F38100012807D06868C0F38100D1
:10072000022809D16868C00306D52868800339D536
:1007300060680028E7D035E06068B0F5803F0BD0F6
:1007400010B1B0F5A02F11D0286820F480302860B7
:10075000286820F4802002E0286840F48030286077
:10076000606890B1FFF742FE06460AE0286840F450
:1007700080202860F0E700BFFFF738FE801B642868
:1007800073D828688003F7D50CE0FFF72FFE0646E4
:1007900005E000BFFFF72AFE801B6428F0D8286818
:1007A0008003F7D420789A4E80074FF001094FF06C
:1007B000000839D5686810F00C0F07D06868C0F3DE
:1007C0008100022809D16868C00306D42868800720
:1007D00014D52069012808D110E02069B0B1C6F80D
:1007E0000090FFF703FE074605E00AE1FFF7FEFD74
:1007F000C01B0228C4D828688007F7D5286861691B
:1008000020F0F80040EAC10028600DE0C6F8008042
:10081000FFF7ECFD074604E0FFF7E8FDC01B0228E8
:1008200023D828688007F7D4207800072CD579488A
:10083000A169D9B1C0F80090FFF7D8FD074604E0E0
:10084000FFF7D4FDC01B02280FD8686A8007F7D5D0
:1008500071484FF4FA510068B0FBF1F0009000BF0E
:100860000098411E0091FAD20EE080E0C0F80080AE
:10087000FFF7BCFD074604E0FFF7B8FDC01B0228E8
:1008800075D8686A8007F7D42078400760D5E86992
:100890000027C00008D4E86940F08050E861E869AA
:1008A000012700F0805000905C480168C90513D40E
:1008B0000168834641F480710160FFF797FD82462D
:1008C00006E000BFFFF792FDA0EB0A0064284ED8B7
:1008D000DBF80000C005F5D5E06801280AD008B1B2
:1008E000052813D0286A20F001002862286A20F029
:1008F000040002E0286A40F001002862E06841F24A
:10090000883B98B1FFF772FD82460BE0286A40F001
:1009100004002862EEE700BFFFF768FDA0EB0A01C4
:1009200059455AD8286A8007F6D50CE0FFF75EFDD6
:10093000824605E0FFF75AFDA0EB0A0159454CD865
:10094000286A8007F6D41FB1E86920F08050E8617A
:10095000E06988B36968C1F38101022944D00228A3
:10096000C6F8608004D0FFF741FD044638E034E06B
:10097000FFF73CFD074604E0FFF738FDC01B0228E7
:100980002BD828688001F7D4206AB0F5803F05D1C4
:100990006868A16820F4003008436860D4E9080161
:1009A0000843696821F4741108436860C6F86090D0
:1009B000FFF71CFD044606E025E000BFFFF716FD2B
:1009C000001B022809D828688001F7D51BE000BF6A
:1009D000FFF70CFD001B022802D90320BDE8F88FA9
:1009E00028688001F4D40EE00128F7D06868226AF4
:1009F00000F48031914204D1616A00F470108842A1
:100A000001D00120EAE70020E8E7000000100240E2
:100A10000000424280044242140000200070004066
:100A200010B5401EB0F1807F01D3012010BD4FF002
:100A3000E02460610F21601700F00BFE0020A06130
:100A400007202061002010BD70B590F83C20012ADD
:100A500026D0012480F83C40022280F83D20036823
:100A60005A689D6822F070060A6832435A600D4B3E
:100A700002689A4208D0B2F1804F05D00A4B9A42E0
:100A800002D00A4B9A4204D1496825F080031943E9
:100A9000916080F83D40002180F83C10084670BD10
:100AA000022070BD002C01400004004000080040FE
:100AB00030B585B000210091019102910391006849
:100AC0001A4A1B4902241B4D904219D1886940F0F3
:100AD00004008861886900F004000490886940F08F
:100AE000080088618869694600F008000490C02009
:100AF000CDE9000410480394FFF788FB03200CE0C5
:100B00000E4A904210D1886940F0080088618869D7
:100B100000F0080004904FF47070CDE900046946BD
:100B200028460394FFF772FB05B030BD0004004077
:100B300000100240000C0140000801400008004085
:100B400070B5044690F83C000D4601280AD00120FB
:100B500084F83C0042B1042A18D0082A2AD00C2A72
:100B60004DD139E0022070BD206800F011FC2068F2
:100B7000816941F0080181612068816921F00401E7
:100B80008161206881692A69114311E0206800F0C1
:100B900027FC2068816941F40061816120688169D6
:100BA00021F480618161206881692A6941EA02211A
:100BB000816124E0206800F03FFC2068C16941F0B9
:100BC0000801C1612068C16921F00401C161206888
:100BD000C1692A69114311E0206800F059FC2068BE
:100BE000C16941F40061C1612068C16921F480617B
:100BF000C1612068C1692A6941EA0221C1610020FE
:100C000084F83C0070BD10B5040003D094F83D009A
:100C100010B107E0012010BD002084F83C00204600
:100C200000F01EF8022084F83D00211D206800F02D
:100C30006BFB012084F8460084F83E0084F83F00F6
:100C400084F8400084F8410084F8420084F84300AE
:100C500084F8440084F8450084F83D00002010BD6D
:100C600008B50C4A01680C48914207D1C16941F0AE
:100C70000201C161C06900F0020009E0074A914227
:100C800007D1C16941F00401C161C06900F00400ED
:100C9000009008BD00040040001002400008004021
:100CA00010B50446022249B104290ED0082913D0F8
:100CB00094F84100012816D0012010BD94F83E00A0
:100CC0000128F9D184F83E200FE094F83F00012874
:100CD000F2D184F83F2008E094F840000128EBD1DD
:100CE00084F8402001E084F841200122206800F0CF
:100CF00041FB0F492068884203D1426C42F4004214
:100D000042642068884208D0B0F1804F05D009497C
:100D1000884202D00849884204D1816801F0070165
:100D2000062903D0016841F001010160002010BDD7
:100D3000002C014000040040000800407047000003
:100D400070B5026804461068D168536910F00F0F3F
:100D500052D003F0010501F490762E435FD0C20714
:100D600005D0CA0503D5E26B42F00102E2634207F7
:100D700005D5DA0703D0E26B42F00202E263820794
:100D800005D5DA0703D0E26B42F00402E263020702
:100D900007D501F020022A4303D0E26B42F008029B
:100DA000E263E26B002A33D0800604D5880602D5C0
:100DB000204600F0A5FB20684069E16BC0F380107D
:100DC000090700D428B3204600F08CFB2068416955
:100DD00049061AD5416921F040014161606BA0B11B
:100DE0002D494163606BFFF7C5F9002810D0606B97
:100DF000416BBDE870400847830610D58B060ED5C1
:100E00002046BDE8704000F07BBB2046FFF796FF10
:100E100070BD2046FFF792FF0020E06370BD03061F
:100E20002BD50B0629D594F839002128F6D1A068D6
:100E3000B0F5805F01D12069B0B1206A411C216208
:100E4000216800784860E08C401E0004000CE084BB
:100E5000E4D12068C16821F08001C1602068C168C8
:100E600041F04001C16070BD206A0088C0F30800F5
:100E70005060206A801C2062E5E74006F3D54806F2
:100E8000F1D5D168204621F04001D160202184F8BD
:100E9000391000F0C5F870BDD514000870B5040015
:100EA00004D094F83900002510B106E0012070BD8F
:100EB00084F83850204600F023F8242084F83900C4
:100EC0002068C16821F40051C160204600F05EFB3B
:100ED0002068016921F4904101612068416921F095
:100EE0002A0141612068C16841F40051C160E56395
:100EF000202084F8390084F83A00002070BD0000FA
:100F000030B585B0002400940194029403940068E5
:100F1000184988422CD11848816941F48041816187
:100F2000816901F480410491816941F0040181618A
:100F30008069124D00F0040004904FF4007000909E
:100F4000022001900320039069462846FFF75EF9CE
:100F50002815CDE90004694628460294FFF756F9A2
:100F6000002211462520FFF7ADFA2520FFF79CFA55
:100F700005B030BD003801400010024000080140BB
:100F800090F83A30202B22D1F9B1F2B190F83830F4
:100F9000012B1CD081628285C2850021C16322227F
:100FA00080F83A2080F838100168CA6842F48072EC
:100FB000CA6001684A6942F001024A610068C1687A
:100FC00041F02001C16000207047012070470220DD
:100FD0007047000010B500680C49884214D10C48D5
:100FE00001781C2909D1817840780A4A02EB002057
:100FF00008440949486000F01FF8BDE8104003228A
:1010000003490648FFF7BCBF10BD0000003801408F
:1010100018000020D4FDFFFF00000020B4000020D5
:101020007047FEE710B5044600F0FEF82046BDE824
:10103000104000F019B90000052190FBF1F310B544
:10104000002890FBF1F0094C226803FB102006DD1C
:10105000FFF7E8FF2068BDE8104000F027B900F076
:1010600025F92068BDE81040FFF7DCBF0000002034
:101070000D4808B5816941F020018161816901F065
:1010800020010091816941F004018161816901F0D1
:1010900004010091816941F008018161806900F0DB
:1010A0000800009008BD00000010024010B58AB092
:1010B000002407941C2168460894FFF73AF8224858
:1010C000204901604F21C0E9011440F2CF71C0E90D
:1010D00003148461FFF797FD08B1FFF749F80794FF
:1010E00007A919480894FFF7AFFC08B1FFF740F8CB
:1010F0006020CDE90004029400226946124804945D
:10110000FFF71EFD08B1FFF733F8042269460E48C9
:10111000FFF716FD08B1FFF72BF8082269460A48C9
:10112000FFF70EFD08B1FFF723F80C2269460648C9
:10113000FFF706FD08B1FFF71BF80348FFF7B8FCFF
:101140000AB010BD000400402400002010B58AB091
:10115000002407941C2168460894FEF7EAFF224801
:10116000204901604F21C0E9011440F2CF71C0E96C
:1011700003148461FFF747FD08B1FEF7F9FF0794F8
:1011800007A919480894FFF75FFC08B1FEF7F0FFC4
:101190006020CDE9000402940022694612480494BC
:1011A000FFF7CEFC08B1FEF7E3FF042269460E48C4
:1011B000FFF7C6FC08B1FEF7DBFF082269460A48C4
:1011C000FFF7BEFC08B1FEF7D3FF0C2269460648C4
:1011D000FFF7B6FC08B1FEF7CBFF0348FFF768FC4A
:1011E0000AB010BD000800406C0000200C4810B58B
:1011F0000A4901604FF4E1314160002181600C2215
:10120000C160C0E904128161C161FFF747FE002897
:1012100003D0BDE81040FEF7ABBF10BD0038014061
:10122000B4000020FEE700000649002300280A68F9
:1012300003DB93630968486370475363096840425E
:1012400088637047240000200649002300280A68AC
:1012500003DB13640968C8637047D36309684042BD
:1012600008647047240000200649002300280A680B
:1012700003DB93630968486370475363096840421E
:10128000886370476C0000200649002300280A6824
:1012900003DB13640968C8637047D363096840427D
:1012A000086470476C0000207047704710B5044612
:1012B000FFF7CAFF2046BDE81040FFF7E5BF7047C3
:1012C000FFF79AB810B590B028216846FEF731FFB5
:1012D00014210AA8FEF72DFF02200090012004909F
:1012E00010200024059007946846FFF709FA0F20A4
:1012F000CDE90A040C940D9400210AA80E94FFF77E
:1013000013F910B010BD7047F0B50268164B174CBA
:10131000174D4FF08047984205D0B84203D0A04205
:1013200001D0A84203D122F070064A6832439842A5
:1013300005D0B84203D0A04201D0A84203D122F484
:101340004074CA6822434C6922F080022243026042
:101350008A68C2620A688262984201D1096901639F
:1013600001214161F0BD0000002C0140000400405B
:101370000008004010B501F01F030121046A9940E4
:101380008C430462016A9A401143016210BD00005F
:1013900030B5026A22F001020262026A436884697F
:1013A00024F073050C682C4322F002058A682A4356
:1013B0000A4DA8420BD122F00805CA6823F44073F5
:1013C0002A434D6922F004021D438B692B4343607D
:1013D000846149684163026230BD0000002C014015
:1013E00030B5026A22F010020262026A4368846920
:1013F0000D6824F4E64444EA05248D6822F02002B6
:1014000042EA05120B4DA8420ED1CD6822F08002AF
:1014100042EA05124D6923F4406343EA85038D696E
:1014200022F0400243EA8503436084614968816396
:10143000026230BD002C014030B5026A22F4807295
:101440000262036A4268C46923F4007324F07305DE
:101450000C682C438D6843EA05230C4DA8420ED13D
:10146000CD6823F4006343EA05234D6922F440521A
:1014700042EA05128D6923F4806342EA0512426054
:10148000C4614968C163036230BD0000002C0140A3
:1014900030B5026A22F480520262046A4268C3696B
:1014A0000D6823F4E64343EA05238D6824F40054D1
:1014B00044EA0534064DA84204D14D6922F4804225
:1014C00042EA85124260C36149680164046230BD2A
:1014D000002C014010B5406A0021C185C184FFF78E
:1014E0002DFC10BD0168CA6822F49072CA600168C0
:1014F0004A6922F001024A61202180F83A107047BF
:1015000010B590F83A10222901D0022010BD82684F
:101510004FF480539A4201D1016921B1816A9A4204
:101520001BD04AB10AE00268816A5268C2F308021D
:101530000A80816A891C08E0026972B102685268F7
:1015400002F07F020A70816A491C8162C18D491EC6
:101550000904090CC18503D016E002685268F1E75E
:101560000168CA6822F02002CA600168CA6822F4D1
:101570008072CA6001684A6922F001024A61202132
:1015800080F83A10FFF726FD002010BD70B5044624
:1015900000680169E26821F4405111430161216949
:1015A000A0680843616908432168CA6841F20C6376
:1015B0009A430243CA6020684169A26921F44071DC
:1015C000114341611E492068884202D1FFF752F859
:1015D00001E0FFF73FF800EBC00101EB001260688B
:1015E00064218000B2FBF0F3B3FBF1F36FF0180657
:1015F0007343B2FBF0F5B2FBF0F605EB8305322343
:1016000003EB0515B5FBF1F5B6FBF1F605F0F005BA
:1016100005EB0615B2FBF0F6B2FBF0F0B0FBF1F013
:101620006FF01802504306EB800003EB0010B0FB94
:10163000F1F0216800F00F002844886070BD0000C0
:10164000003801400148FFF77BBB0000B4000020D8
:10165000FEE70907090E002804DB00F1E02080F80E
:101660000014704700F00F0000F1E02080F8141D16
:10167000704702E008C8121F08C1002AFAD170475B
:101680007047002001E001C1121F002AFBD1704702
:10169000FEF7BAFEFFF716FEFFF7EAFCFFF706FDBE
:1016A000FFF754FDFFF7A2FD032212491248FFF78E
:1016B00067FC00211148FFF7F3FA04210F48FFF7F8
:1016C000EFFA08210D48FFF7EBFA0C210B48FFF762
:1016D000E7FA00210A48FFF7E3FA04210848FFF778
:1016E000DFFA08210648FFF7DBFA0C210448FFF770
:1016F000D7FAFEE718000020B400002024000020E4
:101700006C00002000000000000000000102030443
:101710000607080900000000010203043C17000846
:10172000000000201800000072160008541700087E
:1017300018000020E0040000821600085802000093
:101740000000000001000000100000000000000088
:041750000024F4007D
:04000005080000ED02
:00000001FF
